{
  "contractName": "TweetStorage",
  "abi": [
    {
      "anonymous": false,
      "inputs": [
        {
          "indexed": false,
          "internalType": "uint256",
          "name": "id",
          "type": "uint256"
        },
        {
          "indexed": false,
          "internalType": "string",
          "name": "text",
          "type": "string"
        },
        {
          "indexed": false,
          "internalType": "uint256",
          "name": "userId",
          "type": "uint256"
        },
        {
          "indexed": false,
          "internalType": "uint256",
          "name": "postedAt",
          "type": "uint256"
        }
      ],
      "name": "NewTweet",
      "type": "event"
    },
    {
      "inputs": [],
      "name": "controllerAddr",
      "outputs": [
        {
          "internalType": "address",
          "name": "",
          "type": "address"
        }
      ],
      "stateMutability": "view",
      "type": "function",
      "constant": true
    },
    {
      "inputs": [],
      "name": "ownerAddr",
      "outputs": [
        {
          "internalType": "address",
          "name": "",
          "type": "address"
        }
      ],
      "stateMutability": "view",
      "type": "function",
      "constant": true
    },
    {
      "inputs": [
        {
          "internalType": "address",
          "name": "_controllerAddr",
          "type": "address"
        }
      ],
      "name": "setControllerAddr",
      "outputs": [],
      "stateMutability": "nonpayable",
      "type": "function"
    },
    {
      "inputs": [
        {
          "internalType": "address",
          "name": "_newOwner",
          "type": "address"
        }
      ],
      "name": "transferOwnership",
      "outputs": [],
      "stateMutability": "nonpayable",
      "type": "function"
    },
    {
      "inputs": [
        {
          "internalType": "uint256",
          "name": "",
          "type": "uint256"
        }
      ],
      "name": "tweets",
      "outputs": [
        {
          "internalType": "uint256",
          "name": "id",
          "type": "uint256"
        },
        {
          "internalType": "string",
          "name": "text",
          "type": "string"
        },
        {
          "internalType": "uint256",
          "name": "userId",
          "type": "uint256"
        },
        {
          "internalType": "uint256",
          "name": "postedAt",
          "type": "uint256"
        }
      ],
      "stateMutability": "view",
      "type": "function",
      "constant": true
    },
    {
      "inputs": [
        {
          "internalType": "uint256",
          "name": "",
          "type": "uint256"
        },
        {
          "internalType": "uint256",
          "name": "",
          "type": "uint256"
        }
      ],
      "name": "userTweetIds",
      "outputs": [
        {
          "internalType": "uint256",
          "name": "",
          "type": "uint256"
        }
      ],
      "stateMutability": "view",
      "type": "function",
      "constant": true
    },
    {
      "inputs": [
        {
          "internalType": "uint256",
          "name": "_userId",
          "type": "uint256"
        },
        {
          "internalType": "string",
          "name": "_text",
          "type": "string"
        }
      ],
      "name": "createTweet",
      "outputs": [
        {
          "internalType": "uint256",
          "name": "",
          "type": "uint256"
        }
      ],
      "stateMutability": "nonpayable",
      "type": "function"
    },
    {
      "inputs": [
        {
          "internalType": "uint256",
          "name": "_userId",
          "type": "uint256"
        }
      ],
      "name": "getTweetIdsFromUser",
      "outputs": [
        {
          "internalType": "uint256[]",
          "name": "",
          "type": "uint256[]"
        }
      ],
      "stateMutability": "view",
      "type": "function",
      "constant": true
    },
    {
      "inputs": [],
      "name": "getNumTweets",
      "outputs": [
        {
          "internalType": "uint256",
          "name": "",
          "type": "uint256"
        }
      ],
      "stateMutability": "view",
      "type": "function",
      "constant": true
    }
  ],
  "bytecode": "0x6080604052600060045534801561001557600080fd5b50336000806101000a81548173ffffffffffffffffffffffffffffffffffffffff021916908373ffffffffffffffffffffffffffffffffffffffff160217905550610edc806100656000396000f3fe608060405234801561001057600080fd5b50600436106100935760003560e01c80639c675eaa116100665780639c675eaa14610144578063e8d857b014610162578063eb4fdc3f14610195578063ee255c57146101b3578063f2fde38b146101d157610093565b8063317aae1b146100985780633a2ad5fd146100c85780636981fa7d146100f85780637cc82f2014610114575b600080fd5b6100b260048036038101906100ad91906106b8565b6101ed565b6040516100bf91906107a3565b60405180910390f35b6100e260048036038101906100dd91906107c5565b610258565b6040516100ef9190610814565b60405180910390f35b610112600480360381019061010d919061088d565b610289565b005b61012e60048036038101906101299190610a00565b610325565b60405161013b9190610814565b60405180910390f35b61014c61048e565b6040516101599190610a6b565b60405180910390f35b61017c600480360381019061017791906106b8565b6104b2565b60405161018c9493929190610b05565b60405180910390f35b61019d61056a565b6040516101aa9190610814565b60405180910390f35b6101bb610574565b6040516101c89190610a6b565b60405180910390f35b6101eb60048036038101906101e6919061088d565b61059a565b005b60606003600083815260200190815260200160002080548060200260200160405190810160405280929190818152602001828054801561024c57602002820191906000526020600020905b815481526020019060010190808311610238575b50505050509050919050565b6003602052816000526040600020818154811061027457600080fd5b90600052602060002001600091509150505481565b60008054906101000a900473ffffffffffffffffffffffffffffffffffffffff1673ffffffffffffffffffffffffffffffffffffffff163373ffffffffffffffffffffffffffffffffffffffff16146102e157600080fd5b80600160006101000a81548173ffffffffffffffffffffffffffffffffffffffff021916908373ffffffffffffffffffffffffffffffffffffffff16021790555050565b6000600160009054906101000a900473ffffffffffffffffffffffffffffffffffffffff1673ffffffffffffffffffffffffffffffffffffffff163373ffffffffffffffffffffffffffffffffffffffff161461038157600080fd5b6004600081548092919061039490610b80565b919050555060405180608001604052806004548152602001838152602001848152602001428152506002600060045481526020019081526020016000206000820151816000015560208201518160010190816103f09190610dd4565b5060408201518160020155606082015181600301559050506003600084815260200190815260200160002060045490806001815401808255809150506001900390600052602060002001600090919091909150557fe75b70aa052c5d2fd3965a2e65f11a8b5e8def4b6d259ae94bc3216722d5c22c60045483854260405161047b9493929190610b05565b60405180910390a1600454905092915050565b60008054906101000a900473ffffffffffffffffffffffffffffffffffffffff1681565b60026020528060005260406000206000915090508060000154908060010180546104db90610bf7565b80601f016020809104026020016040519081016040528092919081815260200182805461050790610bf7565b80156105545780601f1061052957610100808354040283529160200191610554565b820191906000526020600020905b81548152906001019060200180831161053757829003601f168201915b5050505050908060020154908060030154905084565b6000600454905090565b600160009054906101000a900473ffffffffffffffffffffffffffffffffffffffff1681565b60008054906101000a900473ffffffffffffffffffffffffffffffffffffffff1673ffffffffffffffffffffffffffffffffffffffff163373ffffffffffffffffffffffffffffffffffffffff16146105f257600080fd5b600073ffffffffffffffffffffffffffffffffffffffff168173ffffffffffffffffffffffffffffffffffffffff160361062b57600080fd5b806000806101000a81548173ffffffffffffffffffffffffffffffffffffffff021916908373ffffffffffffffffffffffffffffffffffffffff16021790555050565b6000604051905090565b600080fd5b600080fd5b6000819050919050565b61069581610682565b81146106a057600080fd5b50565b6000813590506106b28161068c565b92915050565b6000602082840312156106ce576106cd610678565b5b60006106dc848285016106a3565b91505092915050565b600081519050919050565b600082825260208201905092915050565b6000819050602082019050919050565b61071a81610682565b82525050565b600061072c8383610711565b60208301905092915050565b6000602082019050919050565b6000610750826106e5565b61075a81856106f0565b935061076583610701565b8060005b8381101561079657815161077d8882610720565b975061078883610738565b925050600181019050610769565b5085935050505092915050565b600060208201905081810360008301526107bd8184610745565b905092915050565b600080604083850312156107dc576107db610678565b5b60006107ea858286016106a3565b92505060206107fb858286016106a3565b9150509250929050565b61080e81610682565b82525050565b60006020820190506108296000830184610805565b92915050565b600073ffffffffffffffffffffffffffffffffffffffff82169050919050565b600061085a8261082f565b9050919050565b61086a8161084f565b811461087557600080fd5b50565b60008135905061088781610861565b92915050565b6000602082840312156108a3576108a2610678565b5b60006108b184828501610878565b91505092915050565b600080fd5b600080fd5b6000601f19601f8301169050919050565b7f4e487b7100000000000000000000000000000000000000000000000000000000600052604160045260246000fd5b61090d826108c4565b810181811067ffffffffffffffff8211171561092c5761092b6108d5565b5b80604052505050565b600061093f61066e565b905061094b8282610904565b919050565b600067ffffffffffffffff82111561096b5761096a6108d5565b5b610974826108c4565b9050602081019050919050565b82818337600083830152505050565b60006109a361099e84610950565b610935565b9050828152602081018484840111156109bf576109be6108bf565b5b6109ca848285610981565b509392505050565b600082601f8301126109e7576109e66108ba565b5b81356109f7848260208601610990565b91505092915050565b60008060408385031215610a1757610a16610678565b5b6000610a25858286016106a3565b925050602083013567ffffffffffffffff811115610a4657610a4561067d565b5b610a52858286016109d2565b9150509250929050565b610a658161084f565b82525050565b6000602082019050610a806000830184610a5c565b92915050565b600081519050919050565b600082825260208201905092915050565b60005b83811015610ac0578082015181840152602081019050610aa5565b60008484015250505050565b6000610ad782610a86565b610ae18185610a91565b9350610af1818560208601610aa2565b610afa816108c4565b840191505092915050565b6000608082019050610b1a6000830187610805565b8181036020830152610b2c8186610acc565b9050610b3b6040830185610805565b610b486060830184610805565b95945050505050565b7f4e487b7100000000000000000000000000000000000000000000000000000000600052601160045260246000fd5b6000610b8b82610682565b91507fffffffffffffffffffffffffffffffffffffffffffffffffffffffffffffffff8203610bbd57610bbc610b51565b5b600182019050919050565b7f4e487b7100000000000000000000000000000000000000000000000000000000600052602260045260246000fd5b60006002820490506001821680610c0f57607f821691505b602082108103610c2257610c21610bc8565b5b50919050565b60008190508160005260206000209050919050565b60006020601f8301049050919050565b600082821b905092915050565b600060088302610c8a7fffffffffffffffffffffffffffffffffffffffffffffffffffffffffffffffff82610c4d565b610c948683610c4d565b95508019841693508086168417925050509392505050565b6000819050919050565b6000610cd1610ccc610cc784610682565b610cac565b610682565b9050919050565b6000819050919050565b610ceb83610cb6565b610cff610cf782610cd8565b848454610c5a565b825550505050565b600090565b610d14610d07565b610d1f818484610ce2565b505050565b5b81811015610d4357610d38600082610d0c565b600181019050610d25565b5050565b601f821115610d8857610d5981610c28565b610d6284610c3d565b81016020851015610d71578190505b610d85610d7d85610c3d565b830182610d24565b50505b505050565b600082821c905092915050565b6000610dab60001984600802610d8d565b1980831691505092915050565b6000610dc48383610d9a565b9150826002028217905092915050565b610ddd82610a86565b67ffffffffffffffff811115610df657610df56108d5565b5b610e008254610bf7565b610e0b828285610d47565b600060209050601f831160018114610e3e5760008415610e2c578287015190505b610e368582610db8565b865550610e9e565b601f198416610e4c86610c28565b60005b82811015610e7457848901518255600182019150602085019450602081019050610e4f565b86831015610e915784890151610e8d601f891682610d9a565b8355505b6001600288020188555050505b50505050505056fea2646970667358221220e4d16168b309f553c895918556041990ce2d05245efedc5fc1a9ace306189ba364736f6c63430008100033",
  "immutableReferences": {},
  "source": "// SPDX-License-Identifier: MIT\r\npragma solidity ^0.8.16 <0.9.0;\r\n\r\nimport '../Util/baseStorage.sol';\r\n\r\ncontract TweetStorage is BaseStorage {\r\n    struct Tweet {\r\n        uint id;\r\n        string text;\r\n        uint userId;\r\n        uint postedAt;\r\n    }\r\n    mapping(uint => Tweet) public tweets;\r\n    mapping(uint => uint[]) public userTweetIds;\r\n\r\n    event NewTweet(\r\n        uint id,\r\n        string text,\r\n        uint userId,\r\n        uint postedAt\r\n    );\r\n\r\n    uint latestTweetId = 0;\r\n\r\n    function createTweet(uint _userId, string memory _text) public onlyController returns(uint) {\r\n        latestTweetId++;\r\n\r\n        tweets[latestTweetId] = Tweet(latestTweetId, _text, _userId, block.timestamp);\r\n        userTweetIds[_userId].push(latestTweetId);\r\n\r\n        emit NewTweet(latestTweetId, _text, _userId, block.timestamp);\r\n        return latestTweetId;\r\n    }\r\n\r\n    function getTweetIdsFromUser(uint _userId) view public returns(uint[] memory){\r\n        return userTweetIds[_userId];\r\n    }\r\n\r\n    function getNumTweets() view public returns(uint) {\r\n        return latestTweetId;\r\n    }\r\n}",
  "sourcePath": "E:\\Study\\web\\_SELF_\\react\\DSM_Truffle_React\\truffle\\contracts\\Tweet\\tweetStorage.sol",
  "compiler": {
    "name": "solc",
    "version": "0.8.16+commit.07a7930e.Emscripten.clang"
  },
  "schemaVersion": "3.4.9",
  "updatedAt": "2022-09-06T05:29:35.968Z",
  "networkType": "ethereum",
  "devdoc": {
    "kind": "dev",
    "methods": {},
    "version": 1
  },
  "userdoc": {
    "kind": "user",
    "methods": {},
    "version": 1
  }
}