{
  "contractName": "TweetController",
  "abi": [
    {
      "inputs": [],
      "name": "ownerAddr",
      "outputs": [
        {
          "internalType": "address",
          "name": "",
          "type": "address"
        }
      ],
      "stateMutability": "view",
      "type": "function",
      "constant": true
    },
    {
      "inputs": [
        {
          "internalType": "address",
          "name": "_managerAddr",
          "type": "address"
        }
      ],
      "name": "setManagerAddr",
      "outputs": [],
      "stateMutability": "nonpayable",
      "type": "function"
    },
    {
      "inputs": [
        {
          "internalType": "address",
          "name": "_newOwner",
          "type": "address"
        }
      ],
      "name": "transferOwnership",
      "outputs": [],
      "stateMutability": "nonpayable",
      "type": "function"
    },
    {
      "inputs": [
        {
          "internalType": "string",
          "name": "_text",
          "type": "string"
        }
      ],
      "name": "createTweet",
      "outputs": [
        {
          "internalType": "uint256",
          "name": "",
          "type": "uint256"
        }
      ],
      "stateMutability": "nonpayable",
      "type": "function"
    }
  ],
  "bytecode": "0x608060405234801561001057600080fd5b50336000806101000a81548173ffffffffffffffffffffffffffffffffffffffff021916908373ffffffffffffffffffffffffffffffffffffffff160217905550610a31806100606000396000f3fe608060405234801561001057600080fd5b506004361061004c5760003560e01c80637978b231146100515780637c9cd2bc1461006d5780639c675eaa1461009d578063f2fde38b146100bb575b600080fd5b61006b60048036038101906100669190610553565b6100d7565b005b610087600480360381019061008291906106c6565b610173565b6040516100949190610728565b60405180910390f35b6100a56103e9565b6040516100b29190610752565b60405180910390f35b6100d560048036038101906100d09190610553565b61040d565b005b60008054906101000a900473ffffffffffffffffffffffffffffffffffffffff1673ffffffffffffffffffffffffffffffffffffffff163373ffffffffffffffffffffffffffffffffffffffff161461012f57600080fd5b80600160006101000a81548173ffffffffffffffffffffffffffffffffffffffff021916908373ffffffffffffffffffffffffffffffffffffffff16021790555050565b600080600160009054906101000a900473ffffffffffffffffffffffffffffffffffffffff16905060008173ffffffffffffffffffffffffffffffffffffffff1663bf40fac16040518163ffffffff1660e01b81526004016101d4906107ca565b602060405180830381865afa1580156101f1573d6000803e3d6000fd5b505050506040513d601f19601f8201168201806040525081019061021591906107ff565b9050600081905060008173ffffffffffffffffffffffffffffffffffffffff166382d38954336040518263ffffffff1660e01b81526004016102579190610752565b602060405180830381865afa158015610274573d6000803e3d6000fd5b505050506040513d601f19601f820116820180604052508101906102989190610858565b9050600081036102dd576040517f08c379a00000000000000000000000000000000000000000000000000000000081526004016102d4906108d1565b60405180910390fd5b60008473ffffffffffffffffffffffffffffffffffffffff1663bf40fac16040518163ffffffff1660e01b81526004016103169061093d565b602060405180830381865afa158015610333573d6000803e3d6000fd5b505050506040513d601f19601f8201168201806040525081019061035791906107ff565b905060008190508073ffffffffffffffffffffffffffffffffffffffff16637cc82f20848a6040518363ffffffff1660e01b81526004016103999291906109cb565b6020604051808303816000875af11580156103b8573d6000803e3d6000fd5b505050506040513d601f19601f820116820180604052508101906103dc9190610858565b9650505050505050919050565b60008054906101000a900473ffffffffffffffffffffffffffffffffffffffff1681565b60008054906101000a900473ffffffffffffffffffffffffffffffffffffffff1673ffffffffffffffffffffffffffffffffffffffff163373ffffffffffffffffffffffffffffffffffffffff161461046557600080fd5b600073ffffffffffffffffffffffffffffffffffffffff168173ffffffffffffffffffffffffffffffffffffffff160361049e57600080fd5b806000806101000a81548173ffffffffffffffffffffffffffffffffffffffff021916908373ffffffffffffffffffffffffffffffffffffffff16021790555050565b6000604051905090565b600080fd5b600080fd5b600073ffffffffffffffffffffffffffffffffffffffff82169050919050565b6000610520826104f5565b9050919050565b61053081610515565b811461053b57600080fd5b50565b60008135905061054d81610527565b92915050565b600060208284031215610569576105686104eb565b5b60006105778482850161053e565b91505092915050565b600080fd5b600080fd5b6000601f19601f8301169050919050565b7f4e487b7100000000000000000000000000000000000000000000000000000000600052604160045260246000fd5b6105d38261058a565b810181811067ffffffffffffffff821117156105f2576105f161059b565b5b80604052505050565b60006106056104e1565b905061061182826105ca565b919050565b600067ffffffffffffffff8211156106315761063061059b565b5b61063a8261058a565b9050602081019050919050565b82818337600083830152505050565b600061066961066484610616565b6105fb565b90508281526020810184848401111561068557610684610585565b5b610690848285610647565b509392505050565b600082601f8301126106ad576106ac610580565b5b81356106bd848260208601610656565b91505092915050565b6000602082840312156106dc576106db6104eb565b5b600082013567ffffffffffffffff8111156106fa576106f96104f0565b5b61070684828501610698565b91505092915050565b6000819050919050565b6107228161070f565b82525050565b600060208201905061073d6000830184610719565b92915050565b61074c81610515565b82525050565b60006020820190506107676000830184610743565b92915050565b600082825260208201905092915050565b7f5573657253746f72616765000000000000000000000000000000000000000000600082015250565b60006107b4600b8361076d565b91506107bf8261077e565b602082019050919050565b600060208201905081810360008301526107e3816107a7565b9050919050565b6000815190506107f981610527565b92915050565b600060208284031215610815576108146104eb565b5b6000610823848285016107ea565b91505092915050565b6108358161070f565b811461084057600080fd5b50565b6000815190506108528161082c565b92915050565b60006020828403121561086e5761086d6104eb565b5b600061087c84828501610843565b91505092915050565b7f5573657220646f6573206e6f7420657869737400000000000000000000000000600082015250565b60006108bb60138361076d565b91506108c682610885565b602082019050919050565b600060208201905081810360008301526108ea816108ae565b9050919050565b7f547765657453746f726167650000000000000000000000000000000000000000600082015250565b6000610927600c8361076d565b9150610932826108f1565b602082019050919050565b600060208201905081810360008301526109568161091a565b9050919050565b600081519050919050565b60005b8381101561098657808201518184015260208101905061096b565b60008484015250505050565b600061099d8261095d565b6109a7818561076d565b93506109b7818560208601610968565b6109c08161058a565b840191505092915050565b60006040820190506109e06000830185610719565b81810360208301526109f28184610992565b9050939250505056fea26469706673582212200cddcce36995a8a9bc6d34e0ede07fc434ff346962d17048731c9d0d4d60058864736f6c63430008100033",
  "immutableReferences": {},
  "source": "// SPDX-License-Identifier: MIT\npragma solidity >=0.8.16 <0.9.0;\n\nimport '../Util/baseController.sol';\nimport '../contractManager.sol';\nimport './tweetStorage.sol';\nimport \"../User/userSTorage.sol\";\n\ncontract TweetController is BaseController {\n\n  function createTweet(string memory _text) public returns(uint) {\n    ContractManager _manager = ContractManager(managerAddr);\n\n    address _userStorageAddr = _manager.getAddress(\"UserStorage\");\n    UserStorage _userStorage = UserStorage(_userStorageAddr);\n\n    uint _userId = _userStorage.addresses(msg.sender);\n    require(_userId != 0, \"User does not exist\");\n\n    address _tweetStorageAddr = _manager.getAddress(\"TweetStorage\");\n    TweetStorage _tweetStorage = TweetStorage(_tweetStorageAddr);\n\n    return _tweetStorage.createTweet(_userId, _text);\n  }\n}\n",
  "sourcePath": "E:\\Study\\web\\_SELF_\\react\\DSM_Truffle_React\\truffle\\contracts\\Tweet\\tweetController.sol",
  "compiler": {
    "name": "solc",
    "version": "0.8.16+commit.07a7930e.Emscripten.clang"
  },
  "schemaVersion": "3.4.9",
  "updatedAt": "2022-09-06T05:29:35.889Z",
  "networkType": "ethereum",
  "devdoc": {
    "kind": "dev",
    "methods": {},
    "version": 1
  },
  "userdoc": {
    "kind": "user",
    "methods": {},
    "version": 1
  }
}