{
  "contractName": "UserStorage",
  "abi": [
    {
      "inputs": [
        {
          "internalType": "address",
          "name": "",
          "type": "address"
        }
      ],
      "name": "addresses",
      "outputs": [
        {
          "internalType": "uint256",
          "name": "",
          "type": "uint256"
        }
      ],
      "stateMutability": "view",
      "type": "function",
      "constant": true
    },
    {
      "inputs": [],
      "name": "controllerAddr",
      "outputs": [
        {
          "internalType": "address",
          "name": "",
          "type": "address"
        }
      ],
      "stateMutability": "view",
      "type": "function",
      "constant": true
    },
    {
      "inputs": [],
      "name": "ownerAddr",
      "outputs": [
        {
          "internalType": "address",
          "name": "",
          "type": "address"
        }
      ],
      "stateMutability": "view",
      "type": "function",
      "constant": true
    },
    {
      "inputs": [
        {
          "internalType": "uint256",
          "name": "",
          "type": "uint256"
        }
      ],
      "name": "profiles",
      "outputs": [
        {
          "internalType": "uint256",
          "name": "id",
          "type": "uint256"
        },
        {
          "internalType": "bytes32",
          "name": "username",
          "type": "bytes32"
        },
        {
          "internalType": "bytes32",
          "name": "name",
          "type": "bytes32"
        },
        {
          "internalType": "string",
          "name": "bio",
          "type": "string"
        }
      ],
      "stateMutability": "view",
      "type": "function",
      "constant": true
    },
    {
      "inputs": [
        {
          "internalType": "address",
          "name": "_controllerAddr",
          "type": "address"
        }
      ],
      "name": "setControllerAddr",
      "outputs": [],
      "stateMutability": "nonpayable",
      "type": "function"
    },
    {
      "inputs": [
        {
          "internalType": "address",
          "name": "_newOwner",
          "type": "address"
        }
      ],
      "name": "transferOwnership",
      "outputs": [],
      "stateMutability": "nonpayable",
      "type": "function"
    },
    {
      "inputs": [
        {
          "internalType": "bytes32",
          "name": "",
          "type": "bytes32"
        }
      ],
      "name": "usernames",
      "outputs": [
        {
          "internalType": "uint256",
          "name": "",
          "type": "uint256"
        }
      ],
      "stateMutability": "view",
      "type": "function",
      "constant": true
    },
    {
      "inputs": [
        {
          "internalType": "address",
          "name": "_address",
          "type": "address"
        },
        {
          "internalType": "bytes32",
          "name": "_username",
          "type": "bytes32"
        },
        {
          "internalType": "bytes32",
          "name": "_name",
          "type": "bytes32"
        },
        {
          "internalType": "string",
          "name": "_bio",
          "type": "string"
        }
      ],
      "name": "createUser",
      "outputs": [
        {
          "internalType": "uint256",
          "name": "",
          "type": "uint256"
        }
      ],
      "stateMutability": "nonpayable",
      "type": "function"
    },
    {
      "inputs": [
        {
          "internalType": "uint256",
          "name": "_userId",
          "type": "uint256"
        }
      ],
      "name": "getUserFromId",
      "outputs": [
        {
          "internalType": "uint256",
          "name": "",
          "type": "uint256"
        },
        {
          "internalType": "bytes32",
          "name": "",
          "type": "bytes32"
        }
      ],
      "stateMutability": "view",
      "type": "function",
      "constant": true
    }
  ],
  "bytecode": "0x6080604052600060055534801561001557600080fd5b50336000806101000a81548173ffffffffffffffffffffffffffffffffffffffff021916908373ffffffffffffffffffffffffffffffffffffffff160217905550610e3c806100656000396000f3fe608060405234801561001057600080fd5b50600436106100935760003560e01c8063be4eb0e911610066578063be4eb0e914610132578063c36fe3d614610163578063ec4d88d714610196578063ee255c57146101c6578063f2fde38b146101e457610093565b80636981fa7d1461009857806382d38954146100b457806385c57cf6146100e45780639c675eaa14610114575b600080fd5b6100b260048036038101906100ad919061069e565b610200565b005b6100ce60048036038101906100c9919061069e565b61029c565b6040516100db91906106e4565b60405180910390f35b6100fe60048036038101906100f9919061087b565b6102b4565b60405161010b91906106e4565b60405180910390f35b61011c610404565b604051610129919061090d565b60405180910390f35b61014c60048036038101906101479190610954565b610428565b60405161015a929190610990565b60405180910390f35b61017d60048036038101906101789190610954565b610462565b60405161018d9493929190610a38565b60405180910390f35b6101b060048036038101906101ab9190610a84565b61051a565b6040516101bd91906106e4565b60405180910390f35b6101ce610532565b6040516101db919061090d565b60405180910390f35b6101fe60048036038101906101f9919061069e565b610558565b005b60008054906101000a900473ffffffffffffffffffffffffffffffffffffffff1673ffffffffffffffffffffffffffffffffffffffff163373ffffffffffffffffffffffffffffffffffffffff161461025857600080fd5b80600160006101000a81548173ffffffffffffffffffffffffffffffffffffffff021916908373ffffffffffffffffffffffffffffffffffffffff16021790555050565b60046020528060005260406000206000915090505481565b6000600160009054906101000a900473ffffffffffffffffffffffffffffffffffffffff1673ffffffffffffffffffffffffffffffffffffffff163373ffffffffffffffffffffffffffffffffffffffff161461031057600080fd5b6005600081548092919061032390610ae0565b9190505550604051806080016040528060055481526020018581526020018481526020018381525060026000600554815260200190815260200160002060008201518160000155602082015181600101556040820151816002015560608201518160030190816103939190610d34565b50905050600554600460008773ffffffffffffffffffffffffffffffffffffffff1673ffffffffffffffffffffffffffffffffffffffff1681526020019081526020016000208190555060055460036000868152602001908152602001600020819055506005549050949350505050565b60008054906101000a900473ffffffffffffffffffffffffffffffffffffffff1681565b6000806002600084815260200190815260200160002060000154600260008581526020019081526020016000206001015491509150915091565b600260205280600052604060002060009150905080600001549080600101549080600201549080600301805461049790610b57565b80601f01602080910402602001604051908101604052809291908181526020018280546104c390610b57565b80156105105780601f106104e557610100808354040283529160200191610510565b820191906000526020600020905b8154815290600101906020018083116104f357829003601f168201915b5050505050905084565b60036020528060005260406000206000915090505481565b600160009054906101000a900473ffffffffffffffffffffffffffffffffffffffff1681565b60008054906101000a900473ffffffffffffffffffffffffffffffffffffffff1673ffffffffffffffffffffffffffffffffffffffff163373ffffffffffffffffffffffffffffffffffffffff16146105b057600080fd5b600073ffffffffffffffffffffffffffffffffffffffff168173ffffffffffffffffffffffffffffffffffffffff16036105e957600080fd5b806000806101000a81548173ffffffffffffffffffffffffffffffffffffffff021916908373ffffffffffffffffffffffffffffffffffffffff16021790555050565b6000604051905090565b600080fd5b600080fd5b600073ffffffffffffffffffffffffffffffffffffffff82169050919050565b600061066b82610640565b9050919050565b61067b81610660565b811461068657600080fd5b50565b60008135905061069881610672565b92915050565b6000602082840312156106b4576106b3610636565b5b60006106c284828501610689565b91505092915050565b6000819050919050565b6106de816106cb565b82525050565b60006020820190506106f960008301846106d5565b92915050565b6000819050919050565b610712816106ff565b811461071d57600080fd5b50565b60008135905061072f81610709565b92915050565b600080fd5b600080fd5b6000601f19601f8301169050919050565b7f4e487b7100000000000000000000000000000000000000000000000000000000600052604160045260246000fd5b6107888261073f565b810181811067ffffffffffffffff821117156107a7576107a6610750565b5b80604052505050565b60006107ba61062c565b90506107c6828261077f565b919050565b600067ffffffffffffffff8211156107e6576107e5610750565b5b6107ef8261073f565b9050602081019050919050565b82818337600083830152505050565b600061081e610819846107cb565b6107b0565b90508281526020810184848401111561083a5761083961073a565b5b6108458482856107fc565b509392505050565b600082601f83011261086257610861610735565b5b813561087284826020860161080b565b91505092915050565b6000806000806080858703121561089557610894610636565b5b60006108a387828801610689565b94505060206108b487828801610720565b93505060406108c587828801610720565b925050606085013567ffffffffffffffff8111156108e6576108e561063b565b5b6108f28782880161084d565b91505092959194509250565b61090781610660565b82525050565b600060208201905061092260008301846108fe565b92915050565b610931816106cb565b811461093c57600080fd5b50565b60008135905061094e81610928565b92915050565b60006020828403121561096a57610969610636565b5b60006109788482850161093f565b91505092915050565b61098a816106ff565b82525050565b60006040820190506109a560008301856106d5565b6109b26020830184610981565b9392505050565b600081519050919050565b600082825260208201905092915050565b60005b838110156109f35780820151818401526020810190506109d8565b60008484015250505050565b6000610a0a826109b9565b610a1481856109c4565b9350610a248185602086016109d5565b610a2d8161073f565b840191505092915050565b6000608082019050610a4d60008301876106d5565b610a5a6020830186610981565b610a676040830185610981565b8181036060830152610a7981846109ff565b905095945050505050565b600060208284031215610a9a57610a99610636565b5b6000610aa884828501610720565b91505092915050565b7f4e487b7100000000000000000000000000000000000000000000000000000000600052601160045260246000fd5b6000610aeb826106cb565b91507fffffffffffffffffffffffffffffffffffffffffffffffffffffffffffffffff8203610b1d57610b1c610ab1565b5b600182019050919050565b7f4e487b7100000000000000000000000000000000000000000000000000000000600052602260045260246000fd5b60006002820490506001821680610b6f57607f821691505b602082108103610b8257610b81610b28565b5b50919050565b60008190508160005260206000209050919050565b60006020601f8301049050919050565b600082821b905092915050565b600060088302610bea7fffffffffffffffffffffffffffffffffffffffffffffffffffffffffffffffff82610bad565b610bf48683610bad565b95508019841693508086168417925050509392505050565b6000819050919050565b6000610c31610c2c610c27846106cb565b610c0c565b6106cb565b9050919050565b6000819050919050565b610c4b83610c16565b610c5f610c5782610c38565b848454610bba565b825550505050565b600090565b610c74610c67565b610c7f818484610c42565b505050565b5b81811015610ca357610c98600082610c6c565b600181019050610c85565b5050565b601f821115610ce857610cb981610b88565b610cc284610b9d565b81016020851015610cd1578190505b610ce5610cdd85610b9d565b830182610c84565b50505b505050565b600082821c905092915050565b6000610d0b60001984600802610ced565b1980831691505092915050565b6000610d248383610cfa565b9150826002028217905092915050565b610d3d826109b9565b67ffffffffffffffff811115610d5657610d55610750565b5b610d608254610b57565b610d6b828285610ca7565b600060209050601f831160018114610d9e5760008415610d8c578287015190505b610d968582610d18565b865550610dfe565b601f198416610dac86610b88565b60005b82811015610dd457848901518255600182019150602085019450602081019050610daf565b86831015610df15784890151610ded601f891682610cfa565b8355505b6001600288020188555050505b50505050505056fea2646970667358221220b64bc77e8831a0583afb35471a6e18965ea6664775f2620e2b396bfd593611fe64736f6c63430008100033",
  "immutableReferences": {},
  "source": "// SPDX-License-Identifier: MIT\r\npragma solidity ^0.8.16 <0.9.0;\r\n\r\nimport '../Util/baseStorage.sol';\r\n\r\ncontract UserStorage is BaseStorage {\r\n    struct Profile {\r\n        uint id;\r\n        bytes32 username;\r\n        bytes32 name;\r\n        string bio;\r\n    }\r\n    mapping(uint => Profile) public profiles;\r\n    mapping(bytes32 => uint) public usernames;\r\n    mapping(address => uint) public addresses;\r\n    uint latestUserId = 0;\r\n\r\n\r\n    function createUser(address _address, bytes32 _username, bytes32 _name, string memory _bio) public onlyController returns(uint) {\r\n        latestUserId++;\r\n\r\n        profiles[latestUserId] = Profile(latestUserId, _username, _name, _bio);\r\n        addresses[_address] = latestUserId;\r\n        usernames[_username] = latestUserId;\r\n\r\n        return latestUserId;\r\n    }\r\n\r\n    function getUserFromId(uint _userId) view public returns(uint, bytes32) {\r\n        return (\r\n        profiles[_userId].id,\r\n        profiles[_userId].username\r\n        );\r\n    }\r\n\r\n}",
  "sourcePath": "E:\\Study\\web\\_SELF_\\react\\DSM_Truffle_React\\truffle\\contracts\\User\\userStorage.sol",
  "compiler": {
    "name": "solc",
    "version": "0.8.16+commit.07a7930e.Emscripten.clang"
  },
  "schemaVersion": "3.4.9",
  "updatedAt": "2022-09-06T05:22:10.314Z",
  "networkType": "ethereum",
  "devdoc": {
    "kind": "dev",
    "methods": {},
    "version": 1
  },
  "userdoc": {
    "kind": "user",
    "methods": {},
    "version": 1
  }
}