{
  "contractName": "UserController",
  "abi": [
    {
      "inputs": [],
      "name": "ownerAddr",
      "outputs": [
        {
          "internalType": "address",
          "name": "",
          "type": "address"
        }
      ],
      "stateMutability": "view",
      "type": "function",
      "constant": true
    },
    {
      "inputs": [
        {
          "internalType": "address",
          "name": "_managerAddr",
          "type": "address"
        }
      ],
      "name": "setManagerAddr",
      "outputs": [],
      "stateMutability": "nonpayable",
      "type": "function"
    },
    {
      "inputs": [
        {
          "internalType": "address",
          "name": "_newOwner",
          "type": "address"
        }
      ],
      "name": "transferOwnership",
      "outputs": [],
      "stateMutability": "nonpayable",
      "type": "function"
    },
    {
      "inputs": [
        {
          "internalType": "bytes32",
          "name": "_username",
          "type": "bytes32"
        },
        {
          "internalType": "bytes32",
          "name": "_name",
          "type": "bytes32"
        },
        {
          "internalType": "string",
          "name": "_bio",
          "type": "string"
        }
      ],
      "name": "createUser",
      "outputs": [
        {
          "internalType": "uint256",
          "name": "",
          "type": "uint256"
        }
      ],
      "stateMutability": "nonpayable",
      "type": "function"
    }
  ],
  "bytecode": "0x608060405234801561001057600080fd5b50336000806101000a81548173ffffffffffffffffffffffffffffffffffffffff021916908373ffffffffffffffffffffffffffffffffffffffff160217905550610b0c806100606000396000f3fe608060405234801561001057600080fd5b506004361061004c5760003560e01c80631ba89247146100515780637978b231146100815780639c675eaa1461009d578063f2fde38b146100bb575b600080fd5b61006b600480360381019061006691906106aa565b6100d7565b6040516100789190610732565b60405180910390f35b61009b600480360381019061009691906107ab565b610386565b005b6100a5610422565b6040516100b291906107e7565b60405180910390f35b6100d560048036038101906100d091906107ab565b610446565b005b600080600160009054906101000a900473ffffffffffffffffffffffffffffffffffffffff16905060008173ffffffffffffffffffffffffffffffffffffffff1663bf40fac16040518163ffffffff1660e01b81526004016101389061085f565b602060405180830381865afa158015610155573d6000803e3d6000fd5b505050506040513d601f19601f820116820180604052508101906101799190610894565b9050600081905060008173ffffffffffffffffffffffffffffffffffffffff1663ec4d88d7896040518263ffffffff1660e01b81526004016101bb91906108d0565b602060405180830381865afa1580156101d8573d6000803e3d6000fd5b505050506040513d601f19601f820116820180604052508101906101fc9190610917565b1461023c576040517f08c379a000000000000000000000000000000000000000000000000000000000815260040161023390610990565b60405180910390fd5b60008173ffffffffffffffffffffffffffffffffffffffff166382d38954336040518263ffffffff1660e01b815260040161027791906107e7565b602060405180830381865afa158015610294573d6000803e3d6000fd5b505050506040513d601f19601f820116820180604052508101906102b89190610917565b146102f8576040517f08c379a00000000000000000000000000000000000000000000000000000000081526004016102ef906109fc565b60405180910390fd5b8073ffffffffffffffffffffffffffffffffffffffff166385c57cf6338989896040518563ffffffff1660e01b81526004016103379493929190610a8a565b6020604051808303816000875af1158015610356573d6000803e3d6000fd5b505050506040513d601f19601f8201168201806040525081019061037a9190610917565b93505050509392505050565b60008054906101000a900473ffffffffffffffffffffffffffffffffffffffff1673ffffffffffffffffffffffffffffffffffffffff163373ffffffffffffffffffffffffffffffffffffffff16146103de57600080fd5b80600160006101000a81548173ffffffffffffffffffffffffffffffffffffffff021916908373ffffffffffffffffffffffffffffffffffffffff16021790555050565b60008054906101000a900473ffffffffffffffffffffffffffffffffffffffff1681565b60008054906101000a900473ffffffffffffffffffffffffffffffffffffffff1673ffffffffffffffffffffffffffffffffffffffff163373ffffffffffffffffffffffffffffffffffffffff161461049e57600080fd5b600073ffffffffffffffffffffffffffffffffffffffff168173ffffffffffffffffffffffffffffffffffffffff16036104d757600080fd5b806000806101000a81548173ffffffffffffffffffffffffffffffffffffffff021916908373ffffffffffffffffffffffffffffffffffffffff16021790555050565b6000604051905090565b600080fd5b600080fd5b6000819050919050565b6105418161052e565b811461054c57600080fd5b50565b60008135905061055e81610538565b92915050565b600080fd5b600080fd5b6000601f19601f8301169050919050565b7f4e487b7100000000000000000000000000000000000000000000000000000000600052604160045260246000fd5b6105b78261056e565b810181811067ffffffffffffffff821117156105d6576105d561057f565b5b80604052505050565b60006105e961051a565b90506105f582826105ae565b919050565b600067ffffffffffffffff8211156106155761061461057f565b5b61061e8261056e565b9050602081019050919050565b82818337600083830152505050565b600061064d610648846105fa565b6105df565b90508281526020810184848401111561066957610668610569565b5b61067484828561062b565b509392505050565b600082601f83011261069157610690610564565b5b81356106a184826020860161063a565b91505092915050565b6000806000606084860312156106c3576106c2610524565b5b60006106d18682870161054f565b93505060206106e28682870161054f565b925050604084013567ffffffffffffffff81111561070357610702610529565b5b61070f8682870161067c565b9150509250925092565b6000819050919050565b61072c81610719565b82525050565b60006020820190506107476000830184610723565b92915050565b600073ffffffffffffffffffffffffffffffffffffffff82169050919050565b60006107788261074d565b9050919050565b6107888161076d565b811461079357600080fd5b50565b6000813590506107a58161077f565b92915050565b6000602082840312156107c1576107c0610524565b5b60006107cf84828501610796565b91505092915050565b6107e18161076d565b82525050565b60006020820190506107fc60008301846107d8565b92915050565b600082825260208201905092915050565b7f5573657253746f72616765000000000000000000000000000000000000000000600082015250565b6000610849600b83610802565b915061085482610813565b602082019050919050565b600060208201905081810360008301526108788161083c565b9050919050565b60008151905061088e8161077f565b92915050565b6000602082840312156108aa576108a9610524565b5b60006108b88482850161087f565b91505092915050565b6108ca8161052e565b82525050565b60006020820190506108e560008301846108c1565b92915050565b6108f481610719565b81146108ff57600080fd5b50565b600081519050610911816108eb565b92915050565b60006020828403121561092d5761092c610524565b5b600061093b84828501610902565b91505092915050565b7f557365726e616d6520616c72656164792074616b656e00000000000000000000600082015250565b600061097a601683610802565b915061098582610944565b602082019050919050565b600060208201905081810360008301526109a98161096d565b9050919050565b7f4163636f756e7420616c72656164792063726561746564000000000000000000600082015250565b60006109e6601783610802565b91506109f1826109b0565b602082019050919050565b60006020820190508181036000830152610a15816109d9565b9050919050565b600081519050919050565b60005b83811015610a45578082015181840152602081019050610a2a565b60008484015250505050565b6000610a5c82610a1c565b610a668185610802565b9350610a76818560208601610a27565b610a7f8161056e565b840191505092915050565b6000608082019050610a9f60008301876107d8565b610aac60208301866108c1565b610ab960408301856108c1565b8181036060830152610acb8184610a51565b90509594505050505056fea264697066735822122021df0368665db9efcd278d20d2fe5afe2e00afaec3ac76cfdaaad0c970204b2064736f6c63430008100033",
  "immutableReferences": {},
  "source": "// SPDX-License-Identifier: MIT\npragma solidity >=0.8.16 <0.9.0;\n\nimport '../Util/baseController.sol';\nimport '../contractManager.sol';\nimport './userStorage.sol';\n\ncontract UserController is BaseController {\n  function createUser(bytes32 _username, bytes32 _name, string memory _bio) public returns(uint) {\n    ContractManager _manager = ContractManager(managerAddr);\n\n    address _userStorageAddr = _manager.getAddress(\"UserStorage\");\n    UserStorage _userStorage = UserStorage(_userStorageAddr);\n\n    require(_userStorage.usernames(_username) == 0, \"Username already taken\");\n    require(_userStorage.addresses(msg.sender) == 0, \"Account already created\");\n\n    return _userStorage.createUser(msg.sender, _username, _name, _bio);\n  }\n}\n",
  "sourcePath": "E:\\Study\\web\\_SELF_\\react\\DSM_Truffle_React\\truffle\\contracts\\User\\userController.sol",
  "compiler": {
    "name": "solc",
    "version": "0.8.16+commit.07a7930e.Emscripten.clang"
  },
  "schemaVersion": "3.4.9",
  "updatedAt": "2022-09-06T05:22:10.269Z",
  "networkType": "ethereum",
  "devdoc": {
    "kind": "dev",
    "methods": {},
    "version": 1
  },
  "userdoc": {
    "kind": "user",
    "methods": {},
    "version": 1
  }
}